{
  "contractName": "UserData",
  "abi": [
    {
      "inputs": [],
      "name": "userCount",
      "outputs": [
        {
          "internalType": "uint256",
          "name": "",
          "type": "uint256"
        }
      ],
      "stateMutability": "view",
      "type": "function",
      "constant": true
    },
    {
      "inputs": [
        {
          "internalType": "string",
          "name": "",
          "type": "string"
        }
      ],
      "name": "users",
      "outputs": [
        {
          "internalType": "string",
          "name": "adhaarNumber",
          "type": "string"
        },
        {
          "internalType": "string",
          "name": "firstname",
          "type": "string"
        },
        {
          "internalType": "string",
          "name": "middlename",
          "type": "string"
        },
        {
          "internalType": "string",
          "name": "lastname",
          "type": "string"
        },
        {
          "internalType": "string",
          "name": "dob",
          "type": "string"
        },
        {
          "internalType": "string",
          "name": "address_1",
          "type": "string"
        },
        {
          "internalType": "string",
          "name": "address_2",
          "type": "string"
        },
        {
          "internalType": "string",
          "name": "contactNo",
          "type": "string"
        },
        {
          "internalType": "string",
          "name": "pincode",
          "type": "string"
        },
        {
          "internalType": "string",
          "name": "profile_pic",
          "type": "string"
        }
      ],
      "stateMutability": "view",
      "type": "function",
      "constant": true
    },
    {
      "inputs": [
        {
          "internalType": "string",
          "name": "_adhaarNumber",
          "type": "string"
        },
        {
          "internalType": "string",
          "name": "_firstname",
          "type": "string"
        },
        {
          "internalType": "string",
          "name": "_middlename",
          "type": "string"
        },
        {
          "internalType": "string",
          "name": "_lastname",
          "type": "string"
        },
        {
          "internalType": "string",
          "name": "_dob",
          "type": "string"
        },
        {
          "internalType": "string",
          "name": "_address_1",
          "type": "string"
        },
        {
          "internalType": "string",
          "name": "_address_2",
          "type": "string"
        },
        {
          "internalType": "string",
          "name": "_contactNo",
          "type": "string"
        },
        {
          "internalType": "string",
          "name": "_pincode",
          "type": "string"
        },
        {
          "internalType": "string",
          "name": "profile_pic",
          "type": "string"
        }
      ],
      "name": "addUser",
      "outputs": [],
      "stateMutability": "nonpayable",
      "type": "function"
    },
    {
      "inputs": [
        {
          "internalType": "string",
          "name": "_adhaarNumber",
          "type": "string"
        },
        {
          "internalType": "string",
          "name": "_firstname",
          "type": "string"
        },
        {
          "internalType": "string",
          "name": "_middlename",
          "type": "string"
        },
        {
          "internalType": "string",
          "name": "_lastname",
          "type": "string"
        },
        {
          "internalType": "string",
          "name": "_dob",
          "type": "string"
        },
        {
          "internalType": "string",
          "name": "_address_1",
          "type": "string"
        },
        {
          "internalType": "string",
          "name": "_address_2",
          "type": "string"
        },
        {
          "internalType": "string",
          "name": "_contactNo",
          "type": "string"
        },
        {
          "internalType": "string",
          "name": "_pincode",
          "type": "string"
        },
        {
          "internalType": "string",
          "name": "profile_pic",
          "type": "string"
        }
      ],
      "name": "updateUser",
      "outputs": [],
      "stateMutability": "nonpayable",
      "type": "function"
    },
    {
      "inputs": [
        {
          "internalType": "string",
          "name": "_adhaarNo",
          "type": "string"
        }
      ],
      "name": "getUser",
      "outputs": [
        {
          "internalType": "string",
          "name": "",
          "type": "string"
        },
        {
          "internalType": "string",
          "name": "",
          "type": "string"
        },
        {
          "internalType": "string",
          "name": "",
          "type": "string"
        },
        {
          "internalType": "string",
          "name": "",
          "type": "string"
        },
        {
          "internalType": "string",
          "name": "",
          "type": "string"
        },
        {
          "internalType": "string",
          "name": "",
          "type": "string"
        },
        {
          "internalType": "string",
          "name": "",
          "type": "string"
        },
        {
          "internalType": "string",
          "name": "",
          "type": "string"
        },
        {
          "internalType": "string",
          "name": "",
          "type": "string"
        },
        {
          "internalType": "string",
          "name": "",
          "type": "string"
        }
      ],
      "stateMutability": "view",
      "type": "function",
      "constant": true
    }
  ],
  "bytecode": "0x6080604052600060015534801561001557600080fd5b506118d2806100256000396000f3fe608060405234801561001057600080fd5b50600436106100575760003560e01c806307973ccf1461005c57806331feb6711461007a57806366a5356e146100b3578063689e1c03146100cf578063d67c635314610108575b600080fd5b610064610124565b6040516100719190610fde565b60405180910390f35b610094600480360381019061008f9190611153565b61012a565b6040516100aa9a9998979695949392919061121b565b60405180910390f35b6100cd60048036038101906100c891906112fd565b61071c565b005b6100e960048036038101906100e49190611153565b6108ba565b6040516100ff9a9998979695949392919061121b565b60405180910390f35b610122600480360381019061011d91906112fd565b610e74565b005b60015481565b6060806060806060806060806060806000808c60405161014a9190611530565b908152602001604051809103902090508060000181600101826002018360030184600401856005018660060187600701886008018960090189805461018e90611576565b80601f01602080910402602001604051908101604052809291908181526020018280546101ba90611576565b80156102075780601f106101dc57610100808354040283529160200191610207565b820191906000526020600020905b8154815290600101906020018083116101ea57829003601f168201915b5050505050995088805461021a90611576565b80601f016020809104026020016040519081016040528092919081815260200182805461024690611576565b80156102935780601f1061026857610100808354040283529160200191610293565b820191906000526020600020905b81548152906001019060200180831161027657829003601f168201915b505050505098508780546102a690611576565b80601f01602080910402602001604051908101604052809291908181526020018280546102d290611576565b801561031f5780601f106102f45761010080835404028352916020019161031f565b820191906000526020600020905b81548152906001019060200180831161030257829003601f168201915b5050505050975086805461033290611576565b80601f016020809104026020016040519081016040528092919081815260200182805461035e90611576565b80156103ab5780601f10610380576101008083540402835291602001916103ab565b820191906000526020600020905b81548152906001019060200180831161038e57829003601f168201915b505050505096508580546103be90611576565b80601f01602080910402602001604051908101604052809291908181526020018280546103ea90611576565b80156104375780601f1061040c57610100808354040283529160200191610437565b820191906000526020600020905b81548152906001019060200180831161041a57829003601f168201915b5050505050955084805461044a90611576565b80601f016020809104026020016040519081016040528092919081815260200182805461047690611576565b80156104c35780601f10610498576101008083540402835291602001916104c3565b820191906000526020600020905b8154815290600101906020018083116104a657829003601f168201915b505050505094508380546104d690611576565b80601f016020809104026020016040519081016040528092919081815260200182805461050290611576565b801561054f5780601f106105245761010080835404028352916020019161054f565b820191906000526020600020905b81548152906001019060200180831161053257829003601f168201915b5050505050935082805461056290611576565b80601f016020809104026020016040519081016040528092919081815260200182805461058e90611576565b80156105db5780601f106105b0576101008083540402835291602001916105db565b820191906000526020600020905b8154815290600101906020018083116105be57829003601f168201915b505050505092508180546105ee90611576565b80601f016020809104026020016040519081016040528092919081815260200182805461061a90611576565b80156106675780601f1061063c57610100808354040283529160200191610667565b820191906000526020600020905b81548152906001019060200180831161064a57829003601f168201915b5050505050915080805461067a90611576565b80601f01602080910402602001604051908101604052809291908181526020018280546106a690611576565b80156106f35780601f106106c8576101008083540402835291602001916106f3565b820191906000526020600020905b8154815290600101906020018083116106d657829003601f168201915b505050505090509a509a509a509a509a509a509a509a509a509a50509193959799509193959799565b6001600081548092919061072f906115d6565b91905055506040518061014001604052808b81526020018a81526020018981526020018881526020018781526020018681526020018581526020018481526020018381526020016040518060400160405280601181526020017f64756d6d792070726f66696c652070696300000000000000000000000000000081525081525060008b6040516107bf9190611530565b908152602001604051809103902060008201518160000190816107e291906117ca565b5060208201518160010190816107f891906117ca565b50604082015181600201908161080e91906117ca565b50606082015181600301908161082491906117ca565b50608082015181600401908161083a91906117ca565b5060a082015181600501908161085091906117ca565b5060c082015181600601908161086691906117ca565b5060e082015181600701908161087c91906117ca565b5061010082015181600801908161089391906117ca565b506101208201518160090190816108aa91906117ca565b5090505050505050505050505050565b6000818051602081018201805184825260208301602085012081835280955050505050506000915090508060000180546108f390611576565b80601f016020809104026020016040519081016040528092919081815260200182805461091f90611576565b801561096c5780601f106109415761010080835404028352916020019161096c565b820191906000526020600020905b81548152906001019060200180831161094f57829003601f168201915b50505050509080600101805461098190611576565b80601f01602080910402602001604051908101604052809291908181526020018280546109ad90611576565b80156109fa5780601f106109cf576101008083540402835291602001916109fa565b820191906000526020600020905b8154815290600101906020018083116109dd57829003601f168201915b505050505090806002018054610a0f90611576565b80601f0160208091040260200160405190810160405280929190818152602001828054610a3b90611576565b8015610a885780601f10610a5d57610100808354040283529160200191610a88565b820191906000526020600020905b815481529060010190602001808311610a6b57829003601f168201915b505050505090806003018054610a9d90611576565b80601f0160208091040260200160405190810160405280929190818152602001828054610ac990611576565b8015610b165780601f10610aeb57610100808354040283529160200191610b16565b820191906000526020600020905b815481529060010190602001808311610af957829003601f168201915b505050505090806004018054610b2b90611576565b80601f0160208091040260200160405190810160405280929190818152602001828054610b5790611576565b8015610ba45780601f10610b7957610100808354040283529160200191610ba4565b820191906000526020600020905b815481529060010190602001808311610b8757829003601f168201915b505050505090806005018054610bb990611576565b80601f0160208091040260200160405190810160405280929190818152602001828054610be590611576565b8015610c325780601f10610c0757610100808354040283529160200191610c32565b820191906000526020600020905b815481529060010190602001808311610c1557829003601f168201915b505050505090806006018054610c4790611576565b80601f0160208091040260200160405190810160405280929190818152602001828054610c7390611576565b8015610cc05780601f10610c9557610100808354040283529160200191610cc0565b820191906000526020600020905b815481529060010190602001808311610ca357829003601f168201915b505050505090806007018054610cd590611576565b80601f0160208091040260200160405190810160405280929190818152602001828054610d0190611576565b8015610d4e5780601f10610d2357610100808354040283529160200191610d4e565b820191906000526020600020905b815481529060010190602001808311610d3157829003601f168201915b505050505090806008018054610d6390611576565b80601f0160208091040260200160405190810160405280929190818152602001828054610d8f90611576565b8015610ddc5780601f10610db157610100808354040283529160200191610ddc565b820191906000526020600020905b815481529060010190602001808311610dbf57829003601f168201915b505050505090806009018054610df190611576565b80601f0160208091040260200160405190810160405280929190818152602001828054610e1d90611576565b8015610e6a5780601f10610e3f57610100808354040283529160200191610e6a565b820191906000526020600020905b815481529060010190602001808311610e4d57829003601f168201915b505050505090508a565b6040518061014001604052808b81526020018a81526020018981526020018881526020018781526020018681526020018581526020018481526020018381526020018281525060008b604051610eca9190611530565b90815260200160405180910390206000820151816000019081610eed91906117ca565b506020820151816001019081610f0391906117ca565b506040820151816002019081610f1991906117ca565b506060820151816003019081610f2f91906117ca565b506080820151816004019081610f4591906117ca565b5060a0820151816005019081610f5b91906117ca565b5060c0820151816006019081610f7191906117ca565b5060e0820151816007019081610f8791906117ca565b50610100820151816008019081610f9e91906117ca565b50610120820151816009019081610fb591906117ca565b5090505050505050505050505050565b6000819050919050565b610fd881610fc5565b82525050565b6000602082019050610ff36000830184610fcf565b92915050565b6000604051905090565b600080fd5b600080fd5b600080fd5b600080fd5b6000601f19601f8301169050919050565b7f4e487b7100000000000000000000000000000000000000000000000000000000600052604160045260246000fd5b61106082611017565b810181811067ffffffffffffffff8211171561107f5761107e611028565b5b80604052505050565b6000611092610ff9565b905061109e8282611057565b919050565b600067ffffffffffffffff8211156110be576110bd611028565b5b6110c782611017565b9050602081019050919050565b82818337600083830152505050565b60006110f66110f1846110a3565b611088565b90508281526020810184848401111561111257611111611012565b5b61111d8482856110d4565b509392505050565b600082601f83011261113a5761113961100d565b5b813561114a8482602086016110e3565b91505092915050565b60006020828403121561116957611168611003565b5b600082013567ffffffffffffffff81111561118757611186611008565b5b61119384828501611125565b91505092915050565b600081519050919050565b600082825260208201905092915050565b60005b838110156111d65780820151818401526020810190506111bb565b60008484015250505050565b60006111ed8261119c565b6111f781856111a7565b93506112078185602086016111b8565b61121081611017565b840191505092915050565b6000610140820190508181036000830152611236818d6111e2565b9050818103602083015261124a818c6111e2565b9050818103604083015261125e818b6111e2565b90508181036060830152611272818a6111e2565b9050818103608083015261128681896111e2565b905081810360a083015261129a81886111e2565b905081810360c08301526112ae81876111e2565b905081810360e08301526112c281866111e2565b90508181036101008301526112d781856111e2565b90508181036101208301526112ec81846111e2565b90509b9a5050505050505050505050565b6000806000806000806000806000806101408b8d03121561132157611320611003565b5b60008b013567ffffffffffffffff81111561133f5761133e611008565b5b61134b8d828e01611125565b9a505060208b013567ffffffffffffffff81111561136c5761136b611008565b5b6113788d828e01611125565b99505060408b013567ffffffffffffffff81111561139957611398611008565b5b6113a58d828e01611125565b98505060608b013567ffffffffffffffff8111156113c6576113c5611008565b5b6113d28d828e01611125565b97505060808b013567ffffffffffffffff8111156113f3576113f2611008565b5b6113ff8d828e01611125565b96505060a08b013567ffffffffffffffff8111156114205761141f611008565b5b61142c8d828e01611125565b95505060c08b013567ffffffffffffffff81111561144d5761144c611008565b5b6114598d828e01611125565b94505060e08b013567ffffffffffffffff81111561147a57611479611008565b5b6114868d828e01611125565b9350506101008b013567ffffffffffffffff8111156114a8576114a7611008565b5b6114b48d828e01611125565b9250506101208b013567ffffffffffffffff8111156114d6576114d5611008565b5b6114e28d828e01611125565b9150509295989b9194979a5092959850565b600081905092915050565b600061150a8261119c565b61151481856114f4565b93506115248185602086016111b8565b80840191505092915050565b600061153c82846114ff565b915081905092915050565b7f4e487b7100000000000000000000000000000000000000000000000000000000600052602260045260246000fd5b6000600282049050600182168061158e57607f821691505b6020821081036115a1576115a0611547565b5b50919050565b7f4e487b7100000000000000000000000000000000000000000000000000000000600052601160045260246000fd5b60006115e182610fc5565b91507fffffffffffffffffffffffffffffffffffffffffffffffffffffffffffffffff8203611613576116126115a7565b5b600182019050919050565b60008190508160005260206000209050919050565b60006020601f8301049050919050565b600082821b905092915050565b6000600883026116807fffffffffffffffffffffffffffffffffffffffffffffffffffffffffffffffff82611643565b61168a8683611643565b95508019841693508086168417925050509392505050565b6000819050919050565b60006116c76116c26116bd84610fc5565b6116a2565b610fc5565b9050919050565b6000819050919050565b6116e1836116ac565b6116f56116ed826116ce565b848454611650565b825550505050565b600090565b61170a6116fd565b6117158184846116d8565b505050565b5b818110156117395761172e600082611702565b60018101905061171b565b5050565b601f82111561177e5761174f8161161e565b61175884611633565b81016020851015611767578190505b61177b61177385611633565b83018261171a565b50505b505050565b600082821c905092915050565b60006117a160001984600802611783565b1980831691505092915050565b60006117ba8383611790565b9150826002028217905092915050565b6117d38261119c565b67ffffffffffffffff8111156117ec576117eb611028565b5b6117f68254611576565b61180182828561173d565b600060209050601f8311600181146118345760008415611822578287015190505b61182c85826117ae565b865550611894565b601f1984166118428661161e565b60005b8281101561186a57848901518255600182019150602085019450602081019050611845565b868310156118875784890151611883601f891682611790565b8355505b6001600288020188555050505b50505050505056fea2646970667358221220e482d7281a0d246b8da8903a83c9f038722c7de8de8657f998978856cc667a3c64736f6c63430008130033",
  "immutableReferences": {},
  "source": "pragma solidity ^0.8.19;\r\n\r\n\r\n\r\ncontract UserData{\r\n \r\n    // data to be stored\r\n    struct User{\r\n        string adhaarNumber;\r\n        string firstname;\r\n        string middlename;\r\n        string lastname;\r\n        string dob;\r\n        string address_1;\r\n        string address_2;\r\n        string contactNo;\r\n        string pincode;\r\n        string profile_pic;\r\n    }\r\n\r\n    // mappping in key value pair\r\n    mapping(string => User) public users;\r\n\r\n    // count of users\r\n    uint public userCount = 0;\r\n\r\n    function addUser(string memory _adhaarNumber,string memory _firstname,string memory _middlename,string memory _lastname,string memory _dob,string memory _address_1,string memory _address_2,string memory _contactNo,string memory _pincode,string memory profile_pic) external {\r\n        userCount++;\r\n        users[_adhaarNumber] = User(_adhaarNumber,_firstname,_middlename,_lastname,_dob,_address_1,_address_2,_contactNo,_pincode,\"dummy profile pic\");\r\n    }\r\n    \r\n    function updateUser(string memory _adhaarNumber,string memory _firstname,string memory _middlename,string memory _lastname,string memory _dob,string memory _address_1,string memory _address_2,string memory _contactNo,string memory _pincode,string memory profile_pic) external {\r\n        users[_adhaarNumber] = User(_adhaarNumber,_firstname,_middlename,_lastname,_dob,_address_1,_address_2,_contactNo,_pincode,profile_pic);\r\n    }\r\n\r\n    function getUser(string memory _adhaarNo) public view returns (string memory,string memory,string memory,string memory,string memory,string memory,string memory,string memory,string memory,string memory) {\r\n        User storage userData = users[_adhaarNo];\r\n        return ( userData.adhaarNumber, userData.firstname, userData.middlename,  userData.lastname, userData.dob, userData.address_1, userData.address_2,userData.contactNo, userData.pincode, userData.profile_pic);\r\n    }\r\n}\r\n",
  "sourcePath": "D:\\Passionate programmer\\BE project\\e-user-verification\\server\\contracts\\UserData.sol",
  "compiler": {
    "name": "solc",
    "version": "0.8.19+commit.7dd6d404.Emscripten.clang"
  },
  "schemaVersion": "3.4.12",
  "updatedAt": "2023-03-28T17:32:46.313Z",
  "networkType": "ethereum",
  "devdoc": {
    "kind": "dev",
    "methods": {},
    "version": 1
  },
  "userdoc": {
    "kind": "user",
    "methods": {},
    "version": 1
  }
}