{
  "contractName": "UserData",
  "abi": [
    {
      "inputs": [],
      "name": "userCount",
      "outputs": [
        {
          "internalType": "uint256",
          "name": "",
          "type": "uint256"
        }
      ],
      "stateMutability": "view",
      "type": "function",
      "constant": true
    },
    {
      "inputs": [
        {
          "internalType": "string",
          "name": "",
          "type": "string"
        }
      ],
      "name": "users",
      "outputs": [
        {
          "internalType": "string",
          "name": "adhaarNumber",
          "type": "string"
        },
        {
          "internalType": "string",
          "name": "firstname",
          "type": "string"
        },
        {
          "internalType": "string",
          "name": "middlename",
          "type": "string"
        },
        {
          "internalType": "string",
          "name": "lastname",
          "type": "string"
        },
        {
          "internalType": "string",
          "name": "dob",
          "type": "string"
        },
        {
          "internalType": "string",
          "name": "address_1",
          "type": "string"
        },
        {
          "internalType": "string",
          "name": "address_2",
          "type": "string"
        },
        {
          "internalType": "string",
          "name": "contactNo",
          "type": "string"
        },
        {
          "internalType": "string",
          "name": "pincode",
          "type": "string"
        },
        {
          "internalType": "string",
          "name": "profile_pic",
          "type": "string"
        },
        {
          "internalType": "string",
          "name": "adhaar_pic",
          "type": "string"
        },
        {
          "internalType": "string",
          "name": "isVerified",
          "type": "string"
        }
      ],
      "stateMutability": "view",
      "type": "function",
      "constant": true
    },
    {
      "inputs": [
        {
          "internalType": "string",
          "name": "_adhaarNumber",
          "type": "string"
        },
        {
          "internalType": "string",
          "name": "_firstname",
          "type": "string"
        },
        {
          "internalType": "string",
          "name": "_middlename",
          "type": "string"
        },
        {
          "internalType": "string",
          "name": "_lastname",
          "type": "string"
        },
        {
          "internalType": "string",
          "name": "_dob",
          "type": "string"
        },
        {
          "internalType": "string",
          "name": "_address_1",
          "type": "string"
        },
        {
          "internalType": "string",
          "name": "_address_2",
          "type": "string"
        },
        {
          "internalType": "string",
          "name": "_contactNo",
          "type": "string"
        },
        {
          "internalType": "string",
          "name": "_pincode",
          "type": "string"
        },
        {
          "internalType": "string",
          "name": "profile_pic",
          "type": "string"
        },
        {
          "internalType": "string",
          "name": "adhaar_pic",
          "type": "string"
        }
      ],
      "name": "addUser",
      "outputs": [],
      "stateMutability": "nonpayable",
      "type": "function"
    },
    {
      "inputs": [
        {
          "internalType": "string",
          "name": "_adhaarNumber",
          "type": "string"
        },
        {
          "internalType": "string",
          "name": "_firstname",
          "type": "string"
        },
        {
          "internalType": "string",
          "name": "_middlename",
          "type": "string"
        },
        {
          "internalType": "string",
          "name": "_lastname",
          "type": "string"
        },
        {
          "internalType": "string",
          "name": "_dob",
          "type": "string"
        },
        {
          "internalType": "string",
          "name": "_address_1",
          "type": "string"
        },
        {
          "internalType": "string",
          "name": "_address_2",
          "type": "string"
        },
        {
          "internalType": "string",
          "name": "_contactNo",
          "type": "string"
        },
        {
          "internalType": "string",
          "name": "_pincode",
          "type": "string"
        },
        {
          "internalType": "string",
          "name": "profile_pic",
          "type": "string"
        },
        {
          "internalType": "string",
          "name": "adhaar_pic",
          "type": "string"
        }
      ],
      "name": "updateUser",
      "outputs": [],
      "stateMutability": "nonpayable",
      "type": "function"
    },
    {
      "inputs": [
        {
          "internalType": "string",
          "name": "_adhaarNo",
          "type": "string"
        }
      ],
      "name": "getUser",
      "outputs": [
        {
          "internalType": "string",
          "name": "",
          "type": "string"
        },
        {
          "internalType": "string",
          "name": "",
          "type": "string"
        },
        {
          "internalType": "string",
          "name": "",
          "type": "string"
        },
        {
          "internalType": "string",
          "name": "",
          "type": "string"
        },
        {
          "internalType": "string",
          "name": "",
          "type": "string"
        },
        {
          "internalType": "string",
          "name": "",
          "type": "string"
        },
        {
          "internalType": "string",
          "name": "",
          "type": "string"
        },
        {
          "internalType": "string",
          "name": "",
          "type": "string"
        },
        {
          "internalType": "string",
          "name": "",
          "type": "string"
        },
        {
          "internalType": "string",
          "name": "",
          "type": "string"
        },
        {
          "internalType": "string",
          "name": "",
          "type": "string"
        },
        {
          "internalType": "string",
          "name": "",
          "type": "string"
        }
      ],
      "stateMutability": "view",
      "type": "function",
      "constant": true
    }
  ],
  "bytecode": "0x6080604052600060015534801561001557600080fd5b50611c23806100256000396000f3fe608060405234801561001057600080fd5b50600436106100575760003560e01c806307973ccf1461005c578063311cc8311461007a57806331feb67114610096578063689e1c03146100d15780639f1f17fd1461010c575b600080fd5b610064610128565b60405161007191906112d2565b60405180910390f35b610094600480360381019061008f9190611447565b61012e565b005b6100b060048036038101906100ab919061166f565b610307565b6040516100c89c9b9a99989796959493929190611737565b60405180910390f35b6100eb60048036038101906100e6919061166f565b610a22565b6040516101039c9b9a99989796959493929190611737565b60405180910390f35b61012660048036038101906101219190611447565b6110f8565b005b60015481565b6001600081548092919061014190611874565b91905055506040518061018001604052808c81526020018b81526020018a81526020018981526020018881526020018781526020018681526020018581526020018481526020018381526020018281526020016040518060400160405280600481526020017f747275650000000000000000000000000000000000000000000000000000000081525081525060008c6040516101dd91906118f8565b908152602001604051809103902060008201518160000190816102009190611b1b565b5060208201518160010190816102169190611b1b565b50604082015181600201908161022c9190611b1b565b5060608201518160030190816102429190611b1b565b5060808201518160040190816102589190611b1b565b5060a082015181600501908161026e9190611b1b565b5060c08201518160060190816102849190611b1b565b5060e082015181600701908161029a9190611b1b565b506101008201518160080190816102b19190611b1b565b506101208201518160090190816102c89190611b1b565b5061014082015181600a0190816102df9190611b1b565b5061016082015181600b0190816102f69190611b1b565b509050505050505050505050505050565b6060806060806060806060806060806060806000808e60405161032a91906118f8565b90815260200160405180910390209050806000018160010182600201836003018460040185600501866006018760070188600801896009018a600a018b600b018b80546103769061193e565b80601f01602080910402602001604051908101604052809291908181526020018280546103a29061193e565b80156103ef5780601f106103c4576101008083540402835291602001916103ef565b820191906000526020600020905b8154815290600101906020018083116103d257829003601f168201915b50505050509b508a80546104029061193e565b80601f016020809104026020016040519081016040528092919081815260200182805461042e9061193e565b801561047b5780601f106104505761010080835404028352916020019161047b565b820191906000526020600020905b81548152906001019060200180831161045e57829003601f168201915b50505050509a5089805461048e9061193e565b80601f01602080910402602001604051908101604052809291908181526020018280546104ba9061193e565b80156105075780601f106104dc57610100808354040283529160200191610507565b820191906000526020600020905b8154815290600101906020018083116104ea57829003601f168201915b5050505050995088805461051a9061193e565b80601f01602080910402602001604051908101604052809291908181526020018280546105469061193e565b80156105935780601f1061056857610100808354040283529160200191610593565b820191906000526020600020905b81548152906001019060200180831161057657829003601f168201915b505050505098508780546105a69061193e565b80601f01602080910402602001604051908101604052809291908181526020018280546105d29061193e565b801561061f5780601f106105f45761010080835404028352916020019161061f565b820191906000526020600020905b81548152906001019060200180831161060257829003601f168201915b505050505097508680546106329061193e565b80601f016020809104026020016040519081016040528092919081815260200182805461065e9061193e565b80156106ab5780601f10610680576101008083540402835291602001916106ab565b820191906000526020600020905b81548152906001019060200180831161068e57829003601f168201915b505050505096508580546106be9061193e565b80601f01602080910402602001604051908101604052809291908181526020018280546106ea9061193e565b80156107375780601f1061070c57610100808354040283529160200191610737565b820191906000526020600020905b81548152906001019060200180831161071a57829003601f168201915b5050505050955084805461074a9061193e565b80601f01602080910402602001604051908101604052809291908181526020018280546107769061193e565b80156107c35780601f10610798576101008083540402835291602001916107c3565b820191906000526020600020905b8154815290600101906020018083116107a657829003601f168201915b505050505094508380546107d69061193e565b80601f01602080910402602001604051908101604052809291908181526020018280546108029061193e565b801561084f5780601f106108245761010080835404028352916020019161084f565b820191906000526020600020905b81548152906001019060200180831161083257829003601f168201915b505050505093508280546108629061193e565b80601f016020809104026020016040519081016040528092919081815260200182805461088e9061193e565b80156108db5780601f106108b0576101008083540402835291602001916108db565b820191906000526020600020905b8154815290600101906020018083116108be57829003601f168201915b505050505092508180546108ee9061193e565b80601f016020809104026020016040519081016040528092919081815260200182805461091a9061193e565b80156109675780601f1061093c57610100808354040283529160200191610967565b820191906000526020600020905b81548152906001019060200180831161094a57829003601f168201915b5050505050915080805461097a9061193e565b80601f01602080910402602001604051908101604052809291908181526020018280546109a69061193e565b80156109f35780601f106109c8576101008083540402835291602001916109f3565b820191906000526020600020905b8154815290600101906020018083116109d657829003601f168201915b505050505090509c509c509c509c509c509c509c509c509c509c509c509c505091939597999b5091939597999b565b600081805160208101820180518482526020830160208501208183528095505050505050600091509050806000018054610a5b9061193e565b80601f0160208091040260200160405190810160405280929190818152602001828054610a879061193e565b8015610ad45780601f10610aa957610100808354040283529160200191610ad4565b820191906000526020600020905b815481529060010190602001808311610ab757829003601f168201915b505050505090806001018054610ae99061193e565b80601f0160208091040260200160405190810160405280929190818152602001828054610b159061193e565b8015610b625780601f10610b3757610100808354040283529160200191610b62565b820191906000526020600020905b815481529060010190602001808311610b4557829003601f168201915b505050505090806002018054610b779061193e565b80601f0160208091040260200160405190810160405280929190818152602001828054610ba39061193e565b8015610bf05780601f10610bc557610100808354040283529160200191610bf0565b820191906000526020600020905b815481529060010190602001808311610bd357829003601f168201915b505050505090806003018054610c059061193e565b80601f0160208091040260200160405190810160405280929190818152602001828054610c319061193e565b8015610c7e5780601f10610c5357610100808354040283529160200191610c7e565b820191906000526020600020905b815481529060010190602001808311610c6157829003601f168201915b505050505090806004018054610c939061193e565b80601f0160208091040260200160405190810160405280929190818152602001828054610cbf9061193e565b8015610d0c5780601f10610ce157610100808354040283529160200191610d0c565b820191906000526020600020905b815481529060010190602001808311610cef57829003601f168201915b505050505090806005018054610d219061193e565b80601f0160208091040260200160405190810160405280929190818152602001828054610d4d9061193e565b8015610d9a5780601f10610d6f57610100808354040283529160200191610d9a565b820191906000526020600020905b815481529060010190602001808311610d7d57829003601f168201915b505050505090806006018054610daf9061193e565b80601f0160208091040260200160405190810160405280929190818152602001828054610ddb9061193e565b8015610e285780601f10610dfd57610100808354040283529160200191610e28565b820191906000526020600020905b815481529060010190602001808311610e0b57829003601f168201915b505050505090806007018054610e3d9061193e565b80601f0160208091040260200160405190810160405280929190818152602001828054610e699061193e565b8015610eb65780601f10610e8b57610100808354040283529160200191610eb6565b820191906000526020600020905b815481529060010190602001808311610e9957829003601f168201915b505050505090806008018054610ecb9061193e565b80601f0160208091040260200160405190810160405280929190818152602001828054610ef79061193e565b8015610f445780601f10610f1957610100808354040283529160200191610f44565b820191906000526020600020905b815481529060010190602001808311610f2757829003601f168201915b505050505090806009018054610f599061193e565b80601f0160208091040260200160405190810160405280929190818152602001828054610f859061193e565b8015610fd25780601f10610fa757610100808354040283529160200191610fd2565b820191906000526020600020905b815481529060010190602001808311610fb557829003601f168201915b50505050509080600a018054610fe79061193e565b80601f01602080910402602001604051908101604052809291908181526020018280546110139061193e565b80156110605780601f1061103557610100808354040283529160200191611060565b820191906000526020600020905b81548152906001019060200180831161104357829003601f168201915b50505050509080600b0180546110759061193e565b80601f01602080910402602001604051908101604052809291908181526020018280546110a19061193e565b80156110ee5780601f106110c3576101008083540402835291602001916110ee565b820191906000526020600020905b8154815290600101906020018083116110d157829003601f168201915b505050505090508c565b6040518061018001604052808c81526020018b81526020018a81526020018981526020018881526020018781526020018681526020018581526020018481526020018381526020018281526020016040518060400160405280600481526020017f747275650000000000000000000000000000000000000000000000000000000081525081525060008c60405161118f91906118f8565b908152602001604051809103902060008201518160000190816111b29190611b1b565b5060208201518160010190816111c89190611b1b565b5060408201518160020190816111de9190611b1b565b5060608201518160030190816111f49190611b1b565b50608082015181600401908161120a9190611b1b565b5060a08201518160050190816112209190611b1b565b5060c08201518160060190816112369190611b1b565b5060e082015181600701908161124c9190611b1b565b506101008201518160080190816112639190611b1b565b5061012082015181600901908161127a9190611b1b565b5061014082015181600a0190816112919190611b1b565b5061016082015181600b0190816112a89190611b1b565b509050505050505050505050505050565b6000819050919050565b6112cc816112b9565b82525050565b60006020820190506112e760008301846112c3565b92915050565b6000604051905090565b600080fd5b600080fd5b600080fd5b600080fd5b6000601f19601f8301169050919050565b7f4e487b7100000000000000000000000000000000000000000000000000000000600052604160045260246000fd5b6113548261130b565b810181811067ffffffffffffffff821117156113735761137261131c565b5b80604052505050565b60006113866112ed565b9050611392828261134b565b919050565b600067ffffffffffffffff8211156113b2576113b161131c565b5b6113bb8261130b565b9050602081019050919050565b82818337600083830152505050565b60006113ea6113e584611397565b61137c565b90508281526020810184848401111561140657611405611306565b5b6114118482856113c8565b509392505050565b600082601f83011261142e5761142d611301565b5b813561143e8482602086016113d7565b91505092915050565b60008060008060008060008060008060006101608c8e03121561146d5761146c6112f7565b5b60008c013567ffffffffffffffff81111561148b5761148a6112fc565b5b6114978e828f01611419565b9b505060208c013567ffffffffffffffff8111156114b8576114b76112fc565b5b6114c48e828f01611419565b9a505060408c013567ffffffffffffffff8111156114e5576114e46112fc565b5b6114f18e828f01611419565b99505060608c013567ffffffffffffffff811115611512576115116112fc565b5b61151e8e828f01611419565b98505060808c013567ffffffffffffffff81111561153f5761153e6112fc565b5b61154b8e828f01611419565b97505060a08c013567ffffffffffffffff81111561156c5761156b6112fc565b5b6115788e828f01611419565b96505060c08c013567ffffffffffffffff811115611599576115986112fc565b5b6115a58e828f01611419565b95505060e08c013567ffffffffffffffff8111156115c6576115c56112fc565b5b6115d28e828f01611419565b9450506101008c013567ffffffffffffffff8111156115f4576115f36112fc565b5b6116008e828f01611419565b9350506101208c013567ffffffffffffffff811115611622576116216112fc565b5b61162e8e828f01611419565b9250506101408c013567ffffffffffffffff8111156116505761164f6112fc565b5b61165c8e828f01611419565b9150509295989b509295989b9093969950565b600060208284031215611685576116846112f7565b5b600082013567ffffffffffffffff8111156116a3576116a26112fc565b5b6116af84828501611419565b91505092915050565b600081519050919050565b600082825260208201905092915050565b60005b838110156116f25780820151818401526020810190506116d7565b60008484015250505050565b6000611709826116b8565b61171381856116c3565b93506117238185602086016116d4565b61172c8161130b565b840191505092915050565b6000610180820190508181036000830152611752818f6116fe565b90508181036020830152611766818e6116fe565b9050818103604083015261177a818d6116fe565b9050818103606083015261178e818c6116fe565b905081810360808301526117a2818b6116fe565b905081810360a08301526117b6818a6116fe565b905081810360c08301526117ca81896116fe565b905081810360e08301526117de81886116fe565b90508181036101008301526117f381876116fe565b905081810361012083015261180881866116fe565b905081810361014083015261181d81856116fe565b905081810361016083015261183281846116fe565b90509d9c50505050505050505050505050565b7f4e487b7100000000000000000000000000000000000000000000000000000000600052601160045260246000fd5b600061187f826112b9565b91507fffffffffffffffffffffffffffffffffffffffffffffffffffffffffffffffff82036118b1576118b0611845565b5b600182019050919050565b600081905092915050565b60006118d2826116b8565b6118dc81856118bc565b93506118ec8185602086016116d4565b80840191505092915050565b600061190482846118c7565b915081905092915050565b7f4e487b7100000000000000000000000000000000000000000000000000000000600052602260045260246000fd5b6000600282049050600182168061195657607f821691505b6020821081036119695761196861190f565b5b50919050565b60008190508160005260206000209050919050565b60006020601f8301049050919050565b600082821b905092915050565b6000600883026119d17fffffffffffffffffffffffffffffffffffffffffffffffffffffffffffffffff82611994565b6119db8683611994565b95508019841693508086168417925050509392505050565b6000819050919050565b6000611a18611a13611a0e846112b9565b6119f3565b6112b9565b9050919050565b6000819050919050565b611a32836119fd565b611a46611a3e82611a1f565b8484546119a1565b825550505050565b600090565b611a5b611a4e565b611a66818484611a29565b505050565b5b81811015611a8a57611a7f600082611a53565b600181019050611a6c565b5050565b601f821115611acf57611aa08161196f565b611aa984611984565b81016020851015611ab8578190505b611acc611ac485611984565b830182611a6b565b50505b505050565b600082821c905092915050565b6000611af260001984600802611ad4565b1980831691505092915050565b6000611b0b8383611ae1565b9150826002028217905092915050565b611b24826116b8565b67ffffffffffffffff811115611b3d57611b3c61131c565b5b611b47825461193e565b611b52828285611a8e565b600060209050601f831160018114611b855760008415611b73578287015190505b611b7d8582611aff565b865550611be5565b601f198416611b938661196f565b60005b82811015611bbb57848901518255600182019150602085019450602081019050611b96565b86831015611bd85784890151611bd4601f891682611ae1565b8355505b6001600288020188555050505b50505050505056fea26469706673582212203966fa98eeeaa3b8fddce9aa77fd7b9f21aeb04ec6e2a5c796b710494753ecac64736f6c63430008130033",
  "immutableReferences": {},
  "source": "pragma solidity ^0.8.19;\r\n\r\ncontract UserData{\r\n \r\n    // data to be stored\r\n    struct User{\r\n        string adhaarNumber;\r\n        string firstname;\r\n        string middlename;\r\n        string lastname;\r\n        string dob;\r\n        string address_1;\r\n        string address_2;\r\n        string contactNo;\r\n        string pincode;\r\n        string profile_pic;\r\n        string adhaar_pic;\r\n        string isVerified;\r\n    }\r\n\r\n    // mappping in key value pair\r\n    mapping(string => User) public users;\r\n\r\n    // count of users\r\n    uint public userCount = 0;\r\n\r\n    function addUser(string memory _adhaarNumber,string memory _firstname,string memory _middlename,string memory _lastname,string memory _dob,string memory _address_1,string memory _address_2,string memory _contactNo,string memory _pincode,string memory profile_pic,string memory adhaar_pic) external {\r\n        userCount++;\r\n        users[_adhaarNumber] = User(_adhaarNumber,_firstname,_middlename,_lastname,_dob,_address_1,_address_2,_contactNo,_pincode,profile_pic,adhaar_pic,'true');\r\n    }\r\n    \r\n    function updateUser(string memory _adhaarNumber,string memory _firstname,string memory _middlename,string memory _lastname,string memory _dob,string memory _address_1,string memory _address_2,string memory _contactNo,string memory _pincode,string memory profile_pic,string memory adhaar_pic) external {\r\n        users[_adhaarNumber] = User(_adhaarNumber,_firstname,_middlename,_lastname,_dob,_address_1,_address_2,_contactNo,_pincode,profile_pic,adhaar_pic,'true');\r\n    }\r\n\r\n    function getUser(string memory _adhaarNo) public view returns (string memory,string memory,string memory,string memory,string memory,string memory,string memory,string memory,string memory,string memory,string memory,string memory) {\r\n        User storage userData = users[_adhaarNo];\r\n        return ( userData.adhaarNumber, userData.firstname, userData.middlename,  userData.lastname, userData.dob, userData.address_1, userData.address_2,userData.contactNo, userData.pincode, userData.profile_pic,userData.adhaar_pic,userData.isVerified);\r\n    }\r\n}\r\n",
  "sourcePath": "D:\\Passionate programmer\\BE project\\e-user-verification\\server\\contracts\\UserData.sol",
  "compiler": {
    "name": "solc",
    "version": "0.8.19+commit.7dd6d404.Emscripten.clang"
  },
  "schemaVersion": "3.4.12",
  "updatedAt": "2023-03-29T06:44:25.501Z",
  "networkType": "ethereum",
  "devdoc": {
    "kind": "dev",
    "methods": {},
    "version": 1
  },
  "userdoc": {
    "kind": "user",
    "methods": {},
    "version": 1
  }
}